:020000040800F2
:10000000E04F00203502000875490008A12A0008C9
:10001000214700083D1E000857520008000000005C
:10002000000000000000000000000000854B0008F8
:10003000411E000800000000FD490008994C00081E
:100040004F0200084F0200084F0200084F0200084C
:100050004F0200084F0200084F0200084F0200083C
:100060004F0200084F0200084F0200084F0200082C
:100070004F0200084F0200084F0200084F0200081C
:100080004F0200084F0200084F0200084F0200080C
:100090004F0200084F0200084F0200084F020008FC
:1000A0004F0200084F0200084F0200084F020008EC
:1000B000FD4C0008954D00084F0200084F02000853
:1000C0004F0200084F0200084F0200084F020008CC
:1000D0004F02000815500008395000084F02000870
:1000E0004F0200084F0200084F02000800F002F81B
:1000F00000F090F80AA090E8000C82448344AAF132
:100100000107DA4501D100F085F8AFF2090EBAE82F
:100110000F0013F0010F18BFFB1A43F0010318473B
:10012000B8BE0000D8BE0000103A24BF78C878C11D
:10013000FAD8520724BF30C830C144BF04680C60ED
:10014000704700000023002400250026103A28BF35
:1001500078C1FBD8520728BF30C148BF0B60704739
:100160006E2900F08184702900F08D81662907F0E6
:100170008584652907F08284672907F07F846129D7
:1001800007F07E8403681B0A28BF41F080016929BB
:1001900000F0FE80642900F0FB80752900F0F880F3
:1001A0006F2900F07E87782900F05981E92900F055
:1001B0001987E42900F01687F52900F01387EF2945
:1001C00000F07B87F82900F058810368DB0928BF1D
:1001D00041F08001632900F09A86732900F09F8620
:1001E000E32901F08F81F32901F094810020704709
:1001F0001FB500F071FF04000020002106F06CFE26
:10020000401C60600020002106F07CFEE0601FBD05
:1002100010B510BD01F015FA1146FFF7E9FF05F022
:1002200025FC01F033FA03B4FFF7F2FF03BC01F041
:1002300037FA00000948804709480047FEE7FEE713
:10024000FEE7FEE7FEE7FEE7FEE7FEE7FEE7FEE786
:1002500004480549054A064B704700009D4C0008BC
:10026000ED00000890420020E04F0020E047002011
:10027000E047002010B5044600F078FB0068005D00
:10028000C00602D504F1200010BD204610BD0000BC
:100290007CB51D4616460C00009001D02044401E3F
:1002A000074B7B442A4669460190304600F005FE24
:1002B00005461CB10020694600F012FE28467CBDB0
:1002C000450C00000FB41CB5084B06AA7B446946D8
:1002D0000090059800F0F1FD04460020694600F00A
:1002E000FFFD20461CBC5DF814FB0000110C000053
:1002F00070B5044685690068C10601D5302600E066
:100300002026C00707D070BDD4E9012130469047B0
:10031000206A401C20626D1EF6D570BD70B5044683
:1003200085690078C00707D170BDD4E9012120207C
:100330009047206A401C20626D1EF6D570BD70B5D6
:100340000C460546012A05D02878800600D5EA69C2
:10035000002302E0012305E05B1C934202D2E05C33
:100360000028F9D1A869E618C01AA861286A1844BB
:1003700028622846FFF7BCFF04E0D5E9012114F804
:10038000010B9047B442F8D32846FFF7C7FF70BD72
:100390002DE9F0410646002410687529314616A55E
:1003A00010D000F0F6FA002802DA404213A507E068
:1003B00031688A0701D512A502E0490704D511A5C5
:1003C000012401E000F0EEFA00210A2206F12407E0
:1003D00009E0B0FBF2FCB0FBF2F302FB1C00303092
:1003E00078541846491C0028F3D123462A46304643
:1003F000BDE8F04100F0DFBA000000002D00000071
:100400002B00000020000000F0B40D460188090513
:1004100002D5214C7C4402E01F4C7C440E34002168
:1004200000F1240608E002F00F071209E75D42EA36
:1004300003721B097754491C52EA0307F3D102786F
:100440000023120704D5702D06D009B10223113400
:100450002246F0BC00F0AFBA01231034F8E770B5C3
:1004600004460D462146106800F09CFA02462946D3
:100470002046BDE870400023C6E7D21D22F00703E6
:10048000D3E90023C0E70368126843F02003036048
:100490000823C3610023B7E7E5B800002DE9F05F4A
:1004A000894604464FF0000ADFF874B1FB44C0F8F7
:1004B00020A02046E1688847002874D0252806D06F
:1004C000D4E901219047206A401C2062F1E7002610
:1004D0005F462046E16888472028054607DB312D26
:1004E00005D2781910F8200C08B10643F1E7B007DF
:1004F00001D526F00406C4F81CA00027C4F818A0F3
:100500002A2D09D0284605F043F838B304EB8708B4
:10051000303DC8F8185019E059F8041B204604EB88
:1005200087029161E1688847012F054618D1E0698B
:10053000002820DA26F020061DE0D8F8180000EB8D
:10054000800005EB40003038C8F818002046E1680C
:100550008847054605F01CF80028EED1012F0AD087
:100560002E2D08D12046E16888477F1C0546022FC2
:1005700046F02006C4DBA069002803DA404246F0BA
:100580000106A061F00701D026F010066C2D0BD0FB
:10059000682D09D04C2D39D06A2D35D0742D35D029
:1005A0007A2D33D016E038E0E1682F4620468847A0
:1005B000B842054609D16C2F26D04FF48060E1681F
:1005C000064320468847054604E06C2F1AD04FF4B6
:1005D000807006430DB3A5F14100192802D82035DB
:1005E00046F400664A462946204626604E46FFF7F6
:1005F000B7FD80B101280BD0F61D26F0070000F1F1
:10060000080956E74020E4E78020D8E70020D6E735
:1006100006F104094DE7284652E7206ABDE8F09F3D
:1006200075B8000030B505460B462A4613F8014B55
:1006300012F8010B08B1A042F8D01CB1002802D07A
:100640006D1CF1E7284630BD40EA0103024630B593
:100650009B0710D14FF0013400E008C208C91D1BF0
:100660009D4315EAC41FF8D013F0FF0102F8011BE7
:100670000DD01B0AF8E711F8013B002B02F8013BF3
:1006800005D011F8013B002B02F8013BF3D130BD3E
:1006900010B5431C02E010F8011B71B18107FAD1BB
:1006A0004FF0013202C88C1A8C4314EAC211F9D0FF
:1006B000C01A0A0603D0C01E10BDC01A10BD0A041D
:1006C00001D0801E10BD0902FCD0401E10BD40EAC2
:1006D000010370B59B072ED14FF00136042A2AD3AF
:1006E00008C810C99D1B9D43121F15EAC61517D0D7
:1006F000D8B2E1B2401A50EA056110D198B2A1B265
:10070000401A50EA05410AD123F07F4024F07F418E
:10071000401A50EA052102D1180EA0EB146070BDFA
:10072000A342DBD018BA21BA884201D9012070BD9A
:100730004FF0FF3070BD0AB9002070BD10F8013BCA
:1007400011F8014B63B1A3420AD1521E08D010F830
:10075000013B11F8014B1BB1A34201D1521EEDD157
:10076000181B70BD032A40F2308010F0030C00F01B
:10077000158011F8013BBCF1020F624498BF11F8DB
:1007800001CB00F8013B38BF11F8013BA2F1040294
:1007900098BF00F801CB38BF00F8013B11F003030C
:1007A00000F02580083AC0F0088051F8043B083A70
:1007B00051F804CBA0E80810F5E7121D5CBF51F812
:1007C000043B40F8043BAFF30080D20724BF11F88C
:1007D000013B11F801CB48BF11F8012B24BF00F8F1
:1007E000013B00F801CB48BF00F8012B704710B562
:1007F000203AC0F00B80B1E81850203AA0E8185019
:10080000B1E81850A0E81850BFF4F5AF5FEA027CD9
:1008100024BFB1E81850A0E8185044BF18C918C048
:10082000BDE810405FEA827C24BF51F8043B40F8E9
:10083000043B08BF7047D20728BF31F8023B48BFCE
:1008400011F8012B28BF20F8023B48BF00F8012B0C
:1008500070474FF000020429C0F0128010F0030C22
:1008600000F01B80CCF1040CBCF1020F18BF00F8A3
:10087000012BA8BF20F8022BA1EB0C0100F00DB852
:100880005FEAC17C24BF00F8012B00F8012B48BFB0
:1008900000F8012B70474FF0000200B51346944654
:1008A0009646203922BFA0E80C50A0E80C50B1F1C8
:1008B0002001BFF4F7AF090728BFA0E80C5048BFDC
:1008C0000CC05DF804EB890028BF40F8042B08BF7A
:1008D000704748BF20F8022B11F0804F18BF00F876
:1008E000012B70474FF0013C50F8042B51F8043BAA
:1008F0009A4221D1A2EB0C03934313EACC1317D1F4
:1009000050F8042B51F8043B9A4215D1A2EB0C038A
:10091000934313EACC130BD150F8042B51F8043B4A
:100920009A4209D1A2EB0C03934313EACC13DBD018
:100930004FF00000704700BFD01A01BAB1FA81F140
:1009400001F0180122FA01F0CB40C1F12001DBB225
:10095000C0B2C01A2CFA01F3D11A914311EAC311A3
:10096000E6D17047704770477047000010B500F03F
:10097000B3FB001D10BD00BF6165000010B500F0A5
:10098000AFFB006810BD10B5044600F0A9FB046081
:1009900010BD09684A0501D540B27047C905FCD5AC
:1009A00000B2704709684A0501D5C0B27047C90551
:1009B000FCD580B270472DE9F0470D469946924626
:1009C000044600F124080168880604D5E06921F096
:1009D0001001216000E00120A84201DD471B00E07A
:1009E0000027A1697A1902EB0900081AA061207892
:1009F000C00602D42046FFF77BFC002608E0D4E9BD
:100A000001211AF806009047206A401C761C2062DB
:100A10004E45F4DB2078C0060AD52046FFF768FC77
:100A200006E0D4E9012130209047206A401C206272
:100A3000381EA7F10107F4DC07E0D4E9012118F81A
:100A400005009047206A401C2062281EA5F1010580
:100A5000F3DC2046FFF762FC2078000602D5022076
:100A6000BDE8F0870120FBE711680268006A5305C2
:100A700001D508700AE0D30501D5088006E0130609
:100A800003D5C217C1E9000200E0086001207047E9
:100A900070472DE9FF4F0C461E464FF0FF378BB0D5
:100AA000D2E90001DDF860800A908A46C1F30A5558
:100AB00005B93D46002108464FF00000BAF1000F8D
:100AC00000F4400005DA00EB80004FF4400101EA39
:100AD00050004FEA9059B9F1010F00DDB9460A986C
:100AE00050EA4A000ED044F61050A5F2FF354543B7
:100AF0002F14B8F1000F1ED07542291E1EDDC9F15A
:100B000000021CE0B8F1010F4FF0000001D03021CD
:100B100003E0F24305E02154401CB042FBDB3046C9
:100B20000022002121540B99C1F80880C1E900205E
:100B30000FB0BDE8F08FBD1B6D1CDEE74A4600DA42
:100B4000694206A800F0EAFC06AB93E8070003AB95
:100B500083E8070050460A9900F0A8FD8DE80700D9
:100B6000A0F500501F3800900398002D0ADD42F2D6
:100B70001F014A460844002303A90390684601F078
:100B800011F809E0A0F500504A461F38002303A9D8
:100B90000390684601F01BF88DE807000004000C84
:100BA00003D04FF0FF30410800E01046B8F1000FCD
:100BB00003D00022009215461EE0751E05D400F0F9
:100BC00093FA303262556D1EF9D5B34601220843BF
:100BD00002D000227F1C04E02078302801D10022BE
:100BE0007F1E002A099784D01DE0112D07DA00F03E
:100BF0007BFA303262556D1C50EA0102F5D1084390
:100C000002D00098C8B10EE00021681E05E0235C08
:100C1000625C63542254401E491C8142F7DBAB46A0
:100C2000A81B401E0990002004F80B000B98099A9D
:100C3000C0F80880C0E9002B7AE711264FF00008C1
:100C400057E72DE9F04F88460446D21D22F00701F0
:100C500091B0D1E90001CDE90A0104F010FC02468F
:100C60000B98C00F01D02D2007E02068810701D527
:100C70002B2002E0202101EAC000032A099001D0C4
:100C8000072A05DB03464146204600F0F1FB0BE155
:100C90002078800601D5E06900E00620B8F1650FF4
:100CA000814606D0B8F1660F18D0B8F1670F70D141
:100CB00031E00020B9F1110F009001DB112301E0B8
:100CC00009F101030AAA01A90CA8FFF7E2FEDDE978
:100CD0000C70002609F10105834647E001204B46D0
:100CE00000904FF000470AAA01A90CA8FFF7D1FE17
:100CF000DDE90DB00C995D46002610B909F101003F
:100D00000D18B9EB050003D4C0F1FF3609F1010558
:100D1000A5EB09002BE0B9F1010F01DA4FF0010951
:100D20000020B9F1110F0090484601DD112300E0C9
:100D300003460AAA01A90CA8FFF7ABFEDDE90C7077
:100D40004D4600268346207800070AD4AB4500DADA
:100D50005D4601A8012D04DD411911F8011C30295F
:100D600007D04F4502DA17F1040F04DA012082465A
:100D70000FE06D1EEEE7002F02DCED1B3E4403E0AA
:100D8000781CA84200DD7D1CB81B00F1010A4FF061
:100D900000472078000703D4AA4501DB4FF0FF3A53
:100DA0000021B7F1004F0DF143088DF8431024D016
:100DB00002202B23002F01DA7F422D230A21021E5D
:100DC000A0F1010000DC5FB197FBF1FC97FBF1F2B1
:100DD00001FB1C7C17460CF1300C08F801CDEEE746
:100DE000A8F1010003702188090501D5452100E023
:100DF0006521A0F1010800F8011C09980FA9A1EBD9
:100E00000807FF1D00B10120411901EBEA70A1693B
:100E10003844081A401EA0612078C00602D420463B
:100E2000FFF766FA099828B1D4E901219047206AB2
:100E3000401C20622078C00622D52046FFF758FAD1
:100E40001EE0002E04DBB34502DD01A8805D00E05A
:100E50003020D4E901219047206A401C2062761C92
:100E6000AAF101005FEA000A0AD100F035F9C06872
:100E70000168405CD4E901219047206A401C20624F
:100E8000281EA5F10105DCDC07E0D4E9012118F8F2
:100E9000010B9047206A401C2062381EA7F1010711
:100EA000F3DC2046FFF73AFA032011B041E60000D8
:100EB00001694A1C02610878704700B58FB0CDE91E
:100EC00001310021059105497944CDE9031011460E
:100ED0006846FFF7E3FA0FB000BD0000E5FFFFFF33
:100EE0000A6802F8010B0A607047D1E900239A42B0
:100EF00002D2531C0B601070704710B5436913B1D8
:100F0000AFF3008001E0FFF71AFA012010BD12785C
:100F100000F124010A7000224A700122EDE71168F5
:100F20004FF0FF32E9E700002DE9FF5F15468A46E2
:100F30000446DFF8AC80F8440027D8E900103E46AC
:100F4000CDE9001010E03AF816106A4602A800F049
:100F500057FB411C07D02178890603D5E26939186F
:100F600091420DD80744761C2078800602D5E069AE
:100F7000B84205DDAE42E6DB3AF816000028E2D1C1
:100F8000A069C01BA0612046FFF7B2F9D8E90010A4
:100F9000CDE90010002017E03AF818106A4602A8C0
:100FA00000F02EFBB0F1FF3F81460BD000250DF184
:100FB000080B05E0D4E901211BF8050090476D1CE2
:100FC0004D45F7D308F10100B0428046E4DB206ACA
:100FD000384420622046FFF7A1F9BDE8FF9F0000DA
:100FE00086AE00002DE9F0418046D21D22F00702B6
:100FF0000025D2E90002F52915A614D0011E72F1D0
:10100000000106DA0023D0EB030063EB020211A615
:1010100008E0D8F800108B0701D50FA602E04907B9
:1010200001D50EA601251146002408F1240704E08D
:1010300000F05AF830323A55641C50EA0102F7D1F8
:101040002B46324621464046BDE8F041FFF7B3BC8F
:10105000000000002D0000002B0000002000000018
:1010600030B4002100F1240408E002F00705D208A2
:10107000303542EA4372DB086554491C52EA0305E5
:10108000F3D10468002310A2250707D5A40600D4D5
:1010900021B1C46901230DA2641EC46130BCFFF7F5
:1010A0008ABC10B5044621461068FFF77BFC024657
:1010B0002046BDE810400023D2E7D21D22F00701F0
:1010C000D1E90023CCE70000000000003000000060
:1010D000004870472C420020004870474C420020D6
:1010E000004870472C42002030B5B0F10A024FEAA8
:1010F000900E71F100034EEA817EB0EB0E0061EBC1
:1011000091014FEA101E4EEA017E10EB0E0041EBFA
:1011100011114FEA102E4EEA016E10EB0E0041EB5A
:1011200011214FEA104E4EEA014E10EB0E0041EB3A
:101130001141401841F100014FEAD00040EA4170EE
:101140004FEAD10110EB80054FEA810444EA907424
:1011500044EB01046D1944EB0404521BA3414FF00E
:10116000000348BF0A3200D530BD401C41F10001E8
:1011700030BD00002DE9F04F04460D46D21D22F08F
:10118000070089B0D0E900974846394604F077F95E
:101190000246F80F01D02D2307E02068810701D512
:1011A0002B2302E0202101EAC0038DF820300BB18F
:1011B000012000E00020032A824601D0072A04DB38
:1011C0002946204600F054F93FE12078800601D4FA
:1011D0000D2500E0E569C7F30A560D2D49DA002117
:1011E0004FEA175B08464FF00000002F00F4400064
:1011F00007DA00EB80004FF4400100EBD07001EA09
:1012000060008115012901DD4FF0FF3100224FEA16
:10121000850CBCF1180F06D31346ACF118004FF043
:101220008052C24003E04FF4801323FA0CF30CF118
:101230000C0CBCF1200F04D3ACF1200C09FA0CF01B
:1012400001E007FA0CF000294FF0004801DD18B961
:101250000FE00ED140450CD319EB02095F4121B9D3
:10126000404502D19F4329EA0209BBEB175F00D03A
:10127000761C2088000502D57B48784402E07A4835
:101280007844193808AA302302F80A30037C0AF19E
:101290000101002E0AF1020A53546A4602DC4FF0A3
:1012A000300101E04FF031014FF001088DF80010DE
:1012B00002D0A6F2FF3603E059EA470100D06B4E98
:1012C000002D02DC2178090704D54FF002082E21F9
:1012D0008DF80110C44600210BE0C7F303433F0122
:1012E000C35C491C6D1E02F80830052908F101088D
:1012F00001DA002DF1DC00210CE000EB1973491C30
:101300001B786D1E082902F808304FEA091908F108
:10131000010801DA002DF0DC21688B0602D516E009
:10132000A8F10108E04505DD02EB080313F8013CD4
:10133000302BF5D0B8F1000F09DD02EB080313F8EC
:10134000013C2E2B03D1090701D4A8F10108002D7F
:1013500005DD3E2102F808106D1E08F10108407CF1
:10136000002E02F8080008F1010804DA2D20764268
:1013700002F8080002E02B2002F808000A214FF4CE
:101380007A70864208F101080BDB96FBF0F33033EC
:1013900002F8083096FBF0F308F1010800FB136631
:1013A00001E0642E0CDB642096FBF0F3303302F88E
:1013B000083096FBF0F308F1010800FB136601E02A
:1013C0000A2E06DB96FBF1F0303002F8080008F137
:1013D000010896FBF1F001FB1060303002F80800C4
:1013E000A16908F1010808EB050202EB0A00081ADE
:1013F000A0612078C00602D42046FEF779FF216A5A
:1014000008AE01EB0A00206204E0D4E9012116F8DD
:10141000010B9047BAF1010AF7D22078C00602D535
:101420002046FEF765FF6E4609E016F8010B3E28E0
:101430000FD0D4E901219047206A401C2062B8F106
:101440000108F2D22046FEF769FF09B00320BDE88B
:10145000F08F206A2844206203E0D4E90121302083
:1014600090476D1EEBD3F8E765AB000002FCFFFF71
:101470002DE9F0411F46044603260168072A01F4BE
:10148000006004DB08B116A505E016A503E008B16D
:1014900015A500E015A521F010002060A069C01E70
:1014A000A0610FB1401EA0612046FEF721FF4FB1A1
:1014B000D4E9012138469047206A401C2062C01CB4
:1014C000206206E0206AFAE7D4E9012115F8010B51
:1014D0009047761EF8D22046FEF720FFBDE8F08147
:1014E0004E414E006E616E00494E4600696E6600C8
:1014F00010B5436913B1AFF3008001E0FFF714FDAD
:10150000012010BD128800F1240182840022C284CF
:101510000122EDE711684FF0FF32E9E72DE9F047CE
:10152000814616468AB0354878440DC88DE80D00CE
:1015300032487844801C03AC0DC884E80D0041F6A5
:101540009B300844372190FBF1F290FBF1F5A5F1B7
:10155000800501FB12041B3C02D56442012000E01F
:101560000020DFF898A080460027FA44AAF1BE0ABE
:101570000EE0E0070AD03246684607EB4701012338
:101580000AEB810100F023FB8DE8070064107F1C4B
:10159000002CEED1194F7F44AE3F19E0E80715D07B
:1015A00007EB04100DF1180A90E80E008AE80E000F
:1015B000C068F04201D1981908903246012306A96B
:1015C00003A800F004FB03AB83E807006D10641C64
:1015D000002DE3D14FF0010332466946B8F1000F08
:1015E00003A802D000F0DEFA01E000F0F0FAC9E949
:1015F0000001C9F808200AB0BDE8F08748A900003A
:1016000070B516460C460546FFF7B0F9036893F827
:101610000101012806D0FF2C0FD8185D68B1012008
:101620002C7070BDD3F807013246214603F2071330
:1016300003442846BDE8704018474FF0FF3070BDA6
:1016400070477546FFF744FDAE46050069465346B0
:1016500020F00700854618B020B5FEF7F9FDBDE87B
:1016600020404FF000064FF000074FF000084FF009
:10167000000B21F00701AC46ACE8C009ACE8C0099A
:10168000ACE8C009ACE8C0098D46704710B5044607
:10169000AFF300802046BDE81040FEF7C4BD000057
:1016A00001491820ABBEFEE7260002005FEA400CAD
:1016B00008BF91F0000F4FEA8C234FEAC12243EAA2
:1016C00051514FEA1C5018BF00F5F0404FEA30006E
:1016D00018BF41F000415FEA6C5C00F02980BCF16A
:1016E000FF3F08BF40F080407047130C06BF120454
:1016F0004FF0100C4FF0000C130E04BF12020CF14F
:10170000080C130F04BF12010CF1040C930F04BF5B
:1017100092000CF1020CD30F04BF52000CF1010C2B
:1017200011464FF00002A0F11F00A0EB0C00704723
:1017300011F0004F08BF704731F000413FF4D5AFC2
:101740000B0C06BF09044FF0100C4FF0000C0B0EF1
:1017500004BF09020CF1080C0B0F04BF09010CF1C6
:10176000040C8B0F04BF89000CF1020CCB0F04BFDB
:1017700049000CF1010CCCF12003A0EB0C0022FA83
:1017800003F302FA0CF241EA030100F10100704791
:1017900020F07F4C80EA030023F07F47ACEB070387
:1017A00003F57C5300F0004003F1FF032DE980496D
:1017B0004FEA154B09B44FEA144325EA0B4E24EACD
:1017C00003480FF2042606EB132749083E785FEA28
:1017D000320203FB0667C7F5000707FB06F64FEA70
:1017E00054374FEAD64606F1020607FB066CCCF1E9
:1017F000005C4FEA1C472CEA074C07FB06F40CFB85
:1018000006F504EB15464FEA961634BF00204FF05C
:1018100000404FEAD13706FB07FC4FEA1C4C0CFB9B
:101820000BF7D21B03FB0CF761EB07010CFB0EF768
:10183000B0EB074072EB17420CFB08F734BFA2EB8A
:101840000742B2EB074261EB17414FEA0C444FEA03
:10185000910706FB07FC4FEA1C4C0CFB0BF7B0EBA7
:10186000C74072EB573203FB0CF734BFA2EBC74201
:10187000B2EBC74261EB57310CFB0EF7B0EBC70080
:1018800072EB57720CFB08F734BFA2EBC702B2EB46
:10189000C70261EB5771039F4FEA816141EA9211E0
:1018A00004EBCC044FEAD1374FEA826206FB07FC17
:1018B00042EA90124FEA80604FEA1C4C0CFB0BF797
:1018C000D21B03FB0CF761EB07010CFB0EF7B0EB2F
:1018D000074072EB17420CFB08F734BFA2EB07423C
:1018E000B2EB074261EB17414FEA8C554FEA910783
:1018F00004EB9C2406FB07FC4FEA1C4C0CFB0BF78B
:10190000B0EBC74072EB573203FB0CF734BFA2EBCE
:10191000C742B2EBC74261EB57310CFB0EF7B0EB9D
:10192000C70072EB57720CFB08F734BFA2EBC7027B
:10193000B2EBC70261EB577115EB4C254FEA8161A1
:1019400041EA92114FEA82624FEAD13742EA90129D
:1019500006FB07FC44F100044FEA80604FEA1C4C90
:101960000CFB0BF7D21B03FB0CF761EB07010CFB25
:101970000EF7B0EB074072EB17420CFB08F734BFD1
:10198000A2EB0742B2EB074261EB174115EB1C15C6
:101990004FEA813141EA92414FEA823242EA904273
:1019A0004FEA80304FEA0C7644F1000448EA0343E2
:1019B0004EEA0B484FF0000EB2EB080C71EB030738
:1019C00024BF624639464EEB0E0E4FF0000B001856
:1019D000524149414BEB0B0BB2EB080C71EB030787
:1019E0007BF1000B24BF624639464EEB0E0E4FF0E2
:1019F000000B0018524149414BEB0B0BB2EB080CAA
:101A000071EB03077BF1000B24BF624639464EEBB6
:101A10000E0E51EA020718BF46F0010616EB0E76CD
:101A200055F1000254F1000103D5BDE88901BDE87C
:101A30000088BDE88901BDE80048B619524141EB74
:101A40000101A3F10103704780807F7E7D7C7B7A5A
:101A50007978777676757473727171706F6E6E6D5A
:101A60006C6C6B6A6A696868676666656464636300
:101A700062616160605F5F5E5E5D5D5C5C5B5B5A86
:101A80005A595958585757565655555554545353F3
:101A900052525251515050504F4F4F4E4E4D4D4D4E
:101AA0004C4C4C4B4B4B4A4A4A4949494848484799
:101AB00047474746464645454544444444434343D7
:101AC0004342424242414141002B9C4630D4770080
:101AD0002BD01CB54FEA370703B44FF010004FF07E
:101AE0001001BAF1000F06D0BCF1000FDCBF40F0CE
:101AF000080040F008014FF000000FBCBDE81040A6
:101B00000BF1010BBBF1010F08BF5FEA170722BF02
:101B100012F1010211F101014FF0004143F1000304
:101B200000F0004043EA00007047F9D35708D0E7BF
:101B300046EA064613F1400F4FEA16461FDD13F141
:101B4000200FDFBF16430A46002120335B42BED080
:101B5000C3F1200746EA064602FA07F74FEA16469F
:101B600046EA0706C3F1200722FA03F201FA07F753
:101B700021FA03F14FF0000342EA0702A7E746EA21
:101B8000020646EA06464FEA164646EA0106BCBF8A
:101B900046EA0646360C4FF000034FF000024FF0C5
:101BA000000194E72DE9804C9A46934670B491E881
:101BB000380007C831EA400C48BF34EA430C03D56B
:101BC000FFF7E6FDFFF780FFF0BCBDE8008C2DE9D4
:101BD000804C9A46934670B491E8380007C810F0DC
:101BE000804F08BF13F0804F03D100F005F8FFF7D6
:101BF0006BFFF0BCBDE8008C20F07F4780EA03005B
:101C000023F07F4C07EB0C03A3F57C5300F000405E
:101C1000A3F1FE0392F0000F00F0B38095F0000FE7
:101C200000F077802DE901494FEA11404FEA144650
:101C300021EA004800FB06FC24EA064708FB06F6FA
:101C400007FB08F800FB07F718EB06484CEB164CAF
:101C50004FEA124B18EB07484FEA15464CEB17407A
:101C600022EA0B4E0BFB06FC25EA06470EFB06F6A6
:101C700007FB0EFE0BFB07F71EEB064E4CEB164C5C
:101C80004FF000061EEB074E4CEB174B18EB0B0802
:101C900040F1000018EB0E0B58EB000840F100007B
:101CA0008F1A4FF000013CBFC943661B14BFB5EB50
:101CB000040C00213CBFC943F61B4FEA17444EEA0F
:101CC0008E0E27EA04454FEA1C4704FB07622CEA04
:101CD000074C05FB07F70CFB05F604FB0CFC16EBA9
:101CE000074642EB174216EB0C4642EB1C421BEB3D
:101CF000060658EB0202414146EA9E0601D5BDE8C0
:101D00000189B619524141EB0101A3F10103BDE87C
:101D100001894FEA14454FEA114724EA054621EAB2
:101D2000074C05FB07F406FB07F70CFB06F105FB68
:101D30000CFC11EB074144EB17444FEA124711EB3F
:101D40000C4144EB1C4422EA074C05FB07F206FB5E
:101D500007F70CFB06F605FB0CFC16EB074642EBFF
:101D6000174216EB0C4642EB1C456A1854F1000171
:101D700048BF7047B619524141EB0101A3F101037D
:101D8000704795F0000F37D04FEA11424FEA1447E1
:101D900021EA024624EA074C02FB07F106FB07F79B
:101DA0000CFB06F402FB0CFC14EB074441EB17415F
:101DB0004FEA154714EB0C4441EB1C4125EA074C54
:101DC00002FB07F506FB07F70CFB06F602FB0CFC13
:101DD00016EB074645EB174516EB0C4645EB1C4248
:101DE000121951F1000148BF7047B619524141EB39
:101DF0000101A3F1010370474FEA14454FEA11476F
:101E000024EA054621EA074C05FB07F106FB07F724
:101E10000CFB06F24FF0000605FB0CFC12EB074230
:101E200041EB174112EB0C4251EB1C4148BF70478C
:101E3000921841EB0101A3F10103704700BFFEE7D7
:101E40007047000010B540F214510348FEF701FD41
:101E500000200249088010BD2E1400204000002000
:101E600070B505460C4600BF052003F0D9FD281EBD
:101E7000A5F101018DB2F7D102492046FEF7E4FB3E
:101E8000204670BD2E14002010B5FFF7DBFF03E0E5
:101E90004FF4FA7003F0C4FD5EA15FA000F028F9D2
:101EA0000028F5D15D48007848B95D480078001DEC
:101EB0005B49087000215A48007801F0D3FD59A110
:101EC0005A4803F071FA03E04FF4FA7003F0A8FDEA
:101ED00057A158A000F00CF90028F5D14F48007820
:101EE00048B94F480078001D4D49087000214C4802
:101EF000007801F0B7FD51A14C4803F055FA45A117
:101F000050A000F0F5F84FF4FA7003F089FD434853
:101F1000007848B942480078001D41490870002106
:101F20003F48007801F09EFD3AA149A000F0E0F89A
:101F30004FF4FA7003F074FD3848007848B9384817
:101F40000078001D3649087000213548007801F0FE
:101F500089FD43A1354803F027FA03E04FF4FA70F6
:101F600003F05EFD32A141A000F0C2F80028F5D1D7
:101F70002A48007848B92A480078001D2849087086
:101F800000212748007801F06DFD3CA1274803F0AF
:101F90000BFA03E04FF4FA7003F042FD24A13BA0DA
:101FA00000F0A6F80028F5D11C48007848B91C4874
:101FB0000078001D1A49087000211948007801F0C6
:101FC00051FD36A1194803F0EFF903E04FF4FA7020
:101FD00003F026FD34A137A000F08AF80028F5D1DF
:101FE0004FF4FA7003F01CFD4FF4FA7003F018FD83
:101FF0000A48007848B90A480078001D0849087066
:1020000000210748007801F02DFD34A1074803F0B6
:10201000CBF910BD000000002B2B2B002500002069
:1020200044000020312E41540D0A000000380140C8
:102030004F4B000041540D0A00000000322E525355
:10204000540D0A0041542B5253540D0A0000000055
:1020500041542B434950434C4F53450D0A00000057
:10206000332E43574D4F44450D0A000041542B4336
:10207000574D4F44453D310D0A000000342E415468
:102080002B4349504D55580D0A00000041542B4335
:1020900049504D55583D300D0A000000352E43572C
:1020A0004A41500D0A0000005749464920474F5405
:1020B0002049500041542B43574A41503D2234326D
:1020C000305F7269676874222C2277717932303000
:1020D0003230333033220D0A0000000045535038AF
:1020E0003236365F496E6974204F4B0D0A0000008E
:1020F0002DE9F04104460D464FF448762046FEF7A0
:10210000C7FA87B23A4621460D4803F075F90FE049
:1021100000F04AF848B929460A48FEF783FA20B188
:10212000FFF790FE0020BDE8F0810A2003F078FC64
:10213000301EA6F101018EB2EAD10120F3E70000C2
:10214000004400402E14002030B589B004460D46EE
:10215000FFF778FE09A101A8FEF7B4F80BA101A8CA
:10216000FFF7C6FF40B90AA10D4803F01DF92A4642
:1021700021460C4803F040F909B030BD41542B43CF
:10218000495053454E440D0A000000003E00000037
:10219000382E41542B43495053454E440D0A0000FC
:1021A00000380140004400400A48008808B9012076
:1021B00070470848008808490988884203D10020F0
:1021C00004490880F4E70348008803490880012097
:1021D000EEE7000040000020420000202DE9F04121
:1021E000024600250026002000230024002791F845
:1021F00003C00CF00F0591F803C00CF0100CBCF1FB
:10220000000F03D091F802C04CEA050591F800C018
:10221000BCF1000F31D0146800202BE04FF0010C0E
:102220000CFA00F3B1F800C00CEA03069E4220D17C
:1022300083004FF00F0C0CFA03F7BC4305FA03FCC4
:102240004CEA040491F803C0BCF1280F06D14FF00A
:10225000010C0CFA00FCC2F814C00AE091F803C0AB
:10226000BCF1480F05D14FF0010C0CFA00FCC2F88C
:1022700010C0401C0828D1D31460B1F800C0BCF1D4
:10228000FF0F34DD546800202EE000F1080C4FF001
:10229000010808FA0CF3B1F800C00CEA03069E42EC
:1022A00021D183004FF00F0C0CFA03F7BC4305FA61
:1022B00003FC4CEA040491F803C0BCF1280F05D1DB
:1022C00000F1080C08FA0CF8C2F8148091F803C069
:1022D000BCF1480F07D100F1080C4FF0010808FAD3
:1022E0000CF8C2F81080401C0828CED35460BDE81A
:1022F000F0810000F0B50A460023002400210025EB
:1023000000F00046B6F1004F02D11D4EF16901E028
:102310001B4E7168C0F3034583B200F44016B6F556
:10232000401F08D121F07061154E766826F0706666
:10233000134F7E6012E000F48016B6F5801F06D1C0
:10234000032606FA05F4A14341F0706106E0460D4C
:10235000360103FA06F6B14341F0706122B1460D31
:10236000360103FA06F6314300F00046B6F1004F9D
:1023700002D1034EF16101E0014E7160F0BD000039
:102380000000014041617047016170470AB101617D
:1023900000E041617047000010B5FFF753FD4FF4B6
:1023A000FA7003F03DFB4FF4FA7003F039FB4A4832
:1023B000007848B949480078001D48490870002154
:1023C0004648007801F04EFB45A14A4802F0ECFF78
:1023D00003E04FF4FA7003F023FB47A147A0FFF797
:1023E00087FE0028F5D14FF4FA7003F019FB4FF483
:1023F000FA7003F015FB3848007848B93748007880
:10240000001D3649087000213448007801F02AFB8D
:102410006F213E48FFF798FE3D49C820FFF720FD99
:10242000FFF710FD3A49334802F0BEFF4FF4FA704F
:1024300003F0F6FA4FF4FA7003F0F2FA03E04FF407
:10244000FA7003F0EDFA33A133A0FFF751FE002834
:10245000F5D132A1274802F0A7FF1F48007848B9FC
:102460001E480078001D1D49087000211B48007897
:1024700001F0F8FA03E04FF4FA7003F0D1FA1EA16C
:1024800029A0FFF735FE0028F5D129A1194802F04F
:102490008BFF1148007848B910480078001D0F499B
:1024A000087000210D48007801F0DCFA002126A018
:1024B00002F0F0F9012126A002F0ECF9022126A099
:1024C00002F0E8F9032126A002F0E4F9042126A095
:1024D00002F0E0F910BD00002500002044000020BB
:1024E000372E41542B4349504D4F44453D31204FE9
:1024F0004B0D0A00003801404F4B000041542B4364
:1025000049504D4F44453D310D0A0000F8BE0008CA
:10251000D21A0020000000002B2B2B002B2B2B208D
:102520004F4B0D0A0000000041540D0A000000004E
:10253000CDCBB3F6CDB8B4ABC4A3CABDB3C9B9A6AD
:10254000A3A10D0A00000000616972696E670000B6
:10255000616C6C65726779006265657200000000ED
:10256000636F6D666F7274006D6F726E696E675F18
:1025700073706F727400000010B50020A0490880CD
:10258000A0490870A0490870A0490870A0490870C7
:10259000A0490870FFF756FC9FA1A34802F004FF72
:1025A00003E04FF4FA7003F03BFAA0A1A1A0FFF7FB
:1025B0009FFD0028F5D14FF4FA7003F031FAA748D7
:1025C000007848B9A6480078001DA5490870002188
:1025D000A348007801F046FAA2A1934802F0E4FE75
:1025E00003E04FF4FA7003F01BFAA3A1A3A0FFF7D6
:1025F0007FFD0028F5D14FF4FA7003F011FA4FF483
:10260000FA7003F00DFA9548007848B994480078BC
:10261000001D9349087000219148007801F022FACA
:102620006A219A48FFF790FD99494FF4FA70FFF735
:1026300017FCFFF707FC96497B4802F0B5FE4FF404
:10264000FA7003F0EDF94FF4FA7003F0E9F903E0E2
:102650004FF4FA7003F0E4F98EA18FA0FFF748FD64
:102660000028F5D17D48007848B97D480078001DE4
:102670007B49087000217A48007801F0F3F987A1BE
:10268000694802F091FE03E04FF4FA7003F0C8F9D4
:1026900079A185A0FFF72CFD0028F5D16F480078BF
:1026A00048B96F480078001D6D49087000216C48DA
:1026B000007801F0D7F97EA15B4802F075FE67480B
:1026C000007848B966480078001D65490870002107
:1026D0006348007801F0C6F9002407E004F14000E7
:1026E0006B49085C74490855601CC4B2132CF5DBB7
:1026F000002410E0C4F10300C1B20A2003F038FB4B
:102700006D49095D30393E4A128801FB00203C4981
:102710000880601CC4B2042CECDB002411E0C4F17E
:102720000100C1B20A2003F023FB634A611D515C22
:102730003039344A127801FB002032490870601C9D
:10274000C4B2022CEBDB002412E0C4F10100C1B2E0
:102750000A2003F00DFB584A04F10801515C30399E
:10276000294A127801FB002027490870601CC4B276
:10277000022CEADB002412E0C4F10100C1B20A20FD
:1027800003F0F6FA4C4A04F10B01515C30391F4A50
:10279000127801FB00201D490870601CC4B2022C95
:1027A000EADB002412E0C4F10100C1B20A2003F008
:1027B000DFFA414A04F10E01515C3039144A1278B3
:1027C00001FB002012490870601CC4B2022CEADB35
:1027D000002412E0C4F10100C1B20A2003F0C8FADB
:1027E000354A04F11101515C30390A4A127801FB73
:1027F000002008490870601CC4B2022CEADB10BD3E
:1028000014000020160000201700002018000020EF
:10281000190000201A000020362E54696D655F549F
:102820004350204F4B0D0A0000380140434F4E4E9D
:102830004543540041542B43495053544152543D55
:1028400022544350222C226170692E6B3738302E6F
:10285000636F6D222C38300D0A0000002500002027
:1028600044000020372E41542B4349504D4F4445DE
:102870003D31204F4B0D0A004F4B000041542B437C
:1028800049504D4F44453D310D0A00008CBE0008B3
:102890006E1A0020000000002B2B2B002B2B2B206E
:1028A0004F4B0D0A0000000041540D0A00000000CB
:1028B000312E41540D0A0000E61F002010B5FFF72D
:1028C000C1FA49A14D4802F06FFD03E04FF4FA70E0
:1028D00003F0A6F84AA14CA0FFF70AFC0028F5D1A6
:1028E0004FF4FA7003F09CF85248007848B9524807
:1028F0000078001D5049087000214F48007801F011
:10290000B1F84EA13D4802F04FFD03E04FF4FA70DC
:1029100003F086F84EA14FA0FFF7EAFB0028F5D19F
:102920004FF4FA7003F07CF84FF4FA7003F078F883
:102930004048007848B940480078001D3E4908707A
:1029400000213D48007801F08DF870214548FFF7DF
:10295000FBFB4549C820FFF783FAFFF773FA4249AA
:10296000264802F021FD4FF4FA7003F059F84FF4B5
:10297000FA7003F055F803E04FF4FA7003F050F8E2
:102980003AA13BA0FFF7B4FB0028F5D139A11B48C1
:1029900002F00AFD2748007848B927480078001D52
:1029A0002549087000212448007801F05BF803E015
:1029B0004FF4FA7003F034F825A131A0FFF798FB2B
:1029C0000028F5D130A10D4802F0EEFC194800783E
:1029D00048B919480078001D1749087000211648A9
:1029E000007801F03FF810BD362E576561746865B8
:1029F000725F544350204F4B0D0A000000380140D5
:102A0000434F4E4E4543540041542B434950535479
:102A10004152543D22544350222C226170692E733E
:102A2000656E6976657273652E636F6D222C383022
:102A30000D0A00002500002044000020372E4154DC
:102A40002B4349504D4F44453D31204F4B0D0A001B
:102A50004F4B000041542B4349504D4F44453D31AD
:102A60000D0A000068BF00084219002000000000A5
:102A70002B2B2B002B2B2B204F4B0D0A0000000083
:102A800041540D0A00000000CDCBB3F6CDB8B4AB75
:102A9000C4A3CABDB3C9B9A6A3A10D0A0000000012
:102AA00000BFFEE72DE9F04104460D4616461F46DD
:102AB0002A2001F0FFFDA11C88B201F0E3FDB11C4A
:102AC00088B201F0DFFD2B2001F0F4FDE91C88B293
:102AD00001F0D8FDF91C88B201F0D4FD2C2001F0E2
:102AE000E9FDBDE8F0812DE9FF4F85B081468A46BA
:102AF0000020039083460798A0EB09040898A0EBF8
:102B00000A06CDF80890CDF804A0002C01DD0127BD
:102B100005E00CB9002702E04FF0FF376442002EB9
:102B200002DD4FF0010806E016B94FF0000802E0A0
:102B30004FF0FF386642B44201DD254600E03546DD
:102B4000002004901EE0019A91B2029A90B2129A6B
:102B500000F01FF8039820440390B3440398A84260
:102B600005DD0398401B0390029838440290AB4562
:102B700004DDABEB050B0198404401900498401C28
:102B800080B20490691C04988842DCDB09B0BDE87F
:102B9000F08F70B504460D4616462B462246294650
:102BA0002046FFF77FFF304601F06CFD70BD2DE938
:102BB000F04706460F4614461D46DDF820A0681E65
:102BC00083B2601E82B239463046FFF76BFFB846CB
:102BD0000EE0B14606E0504601F054FD09F1010057
:102BE0001FFA80F9A145F6DB08F101001FFA80F811
:102BF000A845EEDBBDE8F08710B501F0A9FD022184
:102C00007A48FFF7BFFB642002F00AFF02217748F1
:102C1000FFF7BAFB642002F003FF02217448FFF7BC
:102C2000B3FB642002F0FCFE112001F043FD78208C
:102C300002F0F6FEB12001F03DFD022001F02FFD73
:102C4000352001F02CFD362001F029FDB22001F0E5
:102C500031FD022001F023FD352001F020FD36205A
:102C600001F01DFDB32001F025FD022001F017FD4C
:102C7000352001F014FD362001F011FD022001F095
:102C80000EFD352001F00BFD362001F008FDB420CB
:102C900001F010FD032001F002FDC02001F00AFD4B
:102CA000A22001F0FCFC022001F0F9FC842001F0DC
:102CB000F6FCC12001F0FEFCC52001F0F0FCC220B2
:102CC00001F0F8FC0D2001F0EAFC002001F0E7FC27
:102CD000C32001F0EFFC8D2001F0E1FC2A2001F07F
:102CE000DEFCC42001F0E6FC8D2001F0D8FCEE20D3
:102CF00001F0D5FCC52001F0DDFC0A2001F0CFFC7D
:102D0000362001F0D7FCC82001F0C9FCE02001F01A
:102D1000D1FC122001F0C3FC1C2001F0C0FC1020EB
:102D200001F0BDFC182001F0BAFC332001F0B7FC23
:102D30002C2001F0B4FC252001F0B1FC282001F08A
:102D4000AEFC282001F0ABFC272001F0A8FC2F20CE
:102D500001F0A5FC3C2001F0A2FC002001F09FFC4A
:102D6000032001F09CFC032001F099FC102001F0ED
:102D700096FCE12001F09EFC122001F090FC1C204A
:102D800001F08DFC102001F08AFC182001F087FC76
:102D90002D2001F084FC282001F081FC232001F08B
:102DA0007EFC282001F07BFC282001F078FC262006
:102DB00001F075FC2F2001F072FC3B2001F06FFC4C
:102DC000002001F06CFC032001F069FC032001F0FD
:102DD00066FC102001F063FC3A2001F06BFC05203A
:102DE00001F05DFC292001F065FC10BD000C0140E4
:102DF000000801402DE9F04107460E4600241CE082
:102E00007B2322466C212046FFF74CFE002510E074
:102E10000C4830F814004FF400412941084018B123
:102E2000384601F02FFC02E0304601F02BFC681C14
:102E3000C5B2102DECDB601CC4B2802CE0DBBDE819
:102E4000F0810000E81100202DE9FF4F83B0054616
:102E50008A461746119CAB46204604EBD071C1F35D
:102E600047063046F11706EB5171C910614389B22C
:102E70000191A7F12000C7B20AEB0400401E83B203
:102E8000A819401E82B251462846FFF70BFE4FF0AC
:102E900000094AE0102C06D1264800EB071010F874
:102EA000090002900BE0202C06D1234800EB87108C
:102EB00010F80900029002E007B0BDE8F08F4FF073
:102EC00000082AE0129868B9012000FA08F0029977
:102ED000084018B1069801F0D5FB1AE0109801F0EF
:102EE000D1FB16E0012000FA08F00299084020B159
:102EF00051462846069AFFF74CFE681C85B2A5EBA2
:102F00000B00B04205D15D460AF101001FFA80FABC
:102F100006E008F1010000F0FF08B8F1080FD1DB6E
:102F200000BF09F101001FFA80F901988145B1DB6A
:102F300000BFC1E7747B0008648100082DE9FE4FE3
:102F40008046894615469A46DDE90D470C9E2AE0E3
:102F5000102C09D153462A4649464046CDE901473F
:102F6000009600F025F819E0182C09D153462A469E
:102F700049464046CDE90147009600F09BF80DE038
:102F8000202C09D153462A4649464046CDE90147FF
:102F9000009600F019F901E0BDE8FE8FAD1C08EBCA
:102FA00004001FFA80F828780028D1D100BFF3E789
:102FB0002DE9FE4F0646894692469B460D9C00969B
:102FC0002046E11704EB5171C910614389B20191A8
:102FD0004B200290002565E005EB0510344911F8FF
:102FE00010009AF80010884259D105EB05103049BD
:102FF00001EB400040789AF8011088424FD109EB6C
:103000000400401E83B23019401E82B24946304649
:10301000FFF748FD00273FE04FF0000836E00E982C
:1030200098B905EB0510224901EB4000801CC05DFA
:10303000012101FA08F1084018B1584601F022FBBD
:1030400020E00C9801F01EFB1CE005EB0510184970
:1030500001EB4000801CC05D012101FA08F108402D
:1030600020B15A4649463046FFF793FD701C86B2A0
:103070000098301AA04205D1009E09F101001FFA04
:1030800080F906E008F1010000F0FF08B8F1080F30
:10309000C5DB00BF781CC7B201988742BCDB00BF0C
:1030A000681C85B20298854296DBBDE8FE8F000061
:1030B000249900082DE9FE4F0646894692469B4614
:1030C0000D9C00962046E11704EB5171C910614335
:1030D00089B201910520029000256DE005EB850085
:1030E00000EB4510374911F810009AF8001088429B
:1030F0005FD105EB850000EB4510324901EB400044
:1031000040789AF80110884253D109EB0400401E20
:1031100083B23019401E82B249463046FFF7C2FCE6
:10312000002743E04FF000083AE00E98A8B905EBFD
:10313000850000EB4510234901EB4000801CC05D79
:10314000012101FA08F1084018B1584601F09AFA35
:1031500022E00C9801F096FA1EE005EB850000EBEA
:103160004510184901EB4000801CC05D012101FAA7
:1031700008F1084020B15A4649463046FFF709FD9C
:10318000701C86B20098301AA04205D1009E09F149
:1031900001001FFA80F906E008F1010000F0FF08C5
:1031A000B8F1080FC1DB00BF781CC7B20198874295
:1031B000B8DB00BF681C85B2029885428EDBBDE893
:1031C000FE8F00001AA300082DE9FE4F064689462F
:1031D00092469B460D9C00962046E11704EB5171E8
:1031E000C910614389B2019105200290002565E074
:1031F00005EB8510344911F810009AF80010884248
:1032000059D105EB8510304901EB400040789AF820
:10321000011088424FD109EB0400401E83B23019DF
:10322000401E82B249463046FFF73CFC00273FE093
:103230004FF0000836E00E9898B905EB851022494A
:1032400001EB4000801CC05D012101FA08F108403B
:1032500018B1584601F016FA20E00C9801F012FA65
:103260001CE005EB8510184901EB4000801CC05D97
:10327000012101FA08F1084020B15A46494630467A
:10328000FFF787FC701C86B20098301AA04205D167
:10329000009E09F101001FFA80F906E008F1010023
:1032A00000F0FF08B8F1080FC5DB00BF781CC7B2FB
:1032B00001988742BCDB00BF681C85B2029885423A
:1032C00096DBBDE8FE8F00008CA400082DE9FE4FC0
:1032D0000446884617461D46DDF838B00C9E00208F
:1032E00004F11001CDE90056029088B23B465DA280
:1032F0004146FFF723FE002004F13001CDE90056DE
:10330000029088B23B4658A24146FFF717FE0223BF
:103310005A4641462046CDE90075029600F0B6F8BF
:1033200004F1200188B20223CDE9007502964146DE
:103330000F9A00F0ABF8002004F16001CDE90056CF
:10334000029088B23B4649A24146FFF7F7FD484844
:1033500090F89000303800F0FF0ABAF1070F60D201
:10336000DFE80AF004111E2B38455200002004F15A
:103370007001CDE90056029088B23B463AA2414620
:10338000FFF7DCFD4EE0002004F17001CDE90056AE
:10339000029088B23B4637A24146FFF7CFFD41E09D
:1033A000002004F17001CDE90056029088B23B463E
:1033B00031A24146FFF7C2FD34E0002004F1700164
:1033C000CDE90056029088B23B462CA24146FFF759
:1033D000B5FD27E0002004F17001CDE90056029010
:1033E00088B23B4626A24146FFF7A8FD1AE000201E
:1033F00004F17001CDE90056029088B23B4621A24B
:103400004146FFF79BFD0DE0002004F17001CDE97E
:103410000056029088B23B461BA24146FFF78EFD44
:1034200000E000BF00BF08F1120083B204F1800089
:1034300082B208F1120081B22046FFF733FB4FF051
:10344000000909E0002001F02AF9002001F027F925
:1034500009F1010000F0FF09B9F1800FF2DBBDE8CE
:10346000FE8F0000D4C20000C8D50000D6DC0000EA
:103470006E1A0020D2BB0000B6FE0000C8FD00009E
:10348000CBC40000CEE50000C1F900002DE9FF4FDC
:1034900085B0074691461D46DDE913A6002004903D
:1034A000304606EBD071C1F3470B002434E0281BF3
:1034B000401EC1B20A2002F05BFCB9FBF0F00A2109
:1034C000B0FBF1F201FB12080498A0B9681EA042FB
:1034D00011DDB8F1000F0CD1002004FB0B71CDE918
:1034E00000A6029088B22022129B0699FFF7ACFC3E
:1034F00010E001200490002008F13001CAB204FB62
:103500000B71CDE900A6029088B2129B0699FFF7D5
:103510009BFC00BF601CC4B2AC42C8DB09B0BDE874
:10352000F08F000010B5002462E104EBC40101EB50
:103530000411B14A02EB4100B0A1FDF7D3F920B963
:10354000B1A1B348FDF780F823E104EBC40101EB1E
:103550000411A94A02EB4100A9A1FDF7C3F920B962
:10356000ACA1AB48FDF770F813E104EBC40101EB2B
:103570000411A14A02EB4100A8A1FDF7B3F920B95B
:10358000A4A1A348FDF760F803E104EBC40101EB3B
:103590000411994A02EB4100A3A1FDF7A3F920B958
:1035A0009CA19B48FDF750F8F3E004EBC40101EB4C
:1035B0000411914A02EB41009DA1FDF793F920B956
:1035C000A0A19348FDF740F8E3E004EBC40101EB50
:1035D0000411894A02EB41009CA1FDF783F920B94F
:1035E0009CA18B48FDF730F8D3E004EBC40101EB5C
:1035F0000411814A02EB410098A1FDF773F920B94B
:1036000081A18348FDF720F8C3E004EBC40101EB7E
:103610000411794A02EB410093A1FDF763F920B947
:1036200097A17B48FDF710F8B3E004EBC40101EB70
:103630000411714A02EB410093A1FDF753F920B93F
:1036400094A17348FDF700F8A3E004EBC40101EB7B
:103650000411694A02EB410090A1FDF743F920B93A
:1036600091A16B48FCF7F0FF93E004EBC40101EB80
:103670000411614A02EB41008DA1FDF733F920B935
:1036800091A16348FCF7E0FF83E004EBC40101EB88
:103690000411594A02EB41008DA1FDF723F920B92D
:1036A00090A15B48FCF7D0FF73E004EBC40101EB91
:1036B0000411514A02EB41008CA1FDF713F920B926
:1036C00091A15348FCF7C0FF63E004EBC40101EB98
:1036D0000411494A02EB41008EA1FDF703F920B91C
:1036E00090A14B48FCF7B0FF53E004EBC40101EBA1
:1036F0000411414A02EB41008CA1FDF7F3F820B917
:103700008FA14348FCF7A0FF43E004EBC40101EBA9
:103710000411394A02EB41008CA1FDF7E3F820B90E
:1037200090A13B48FCF790FF33E004EBC40101EBB0
:103730000411314A02EB41008DA1FDF7D3F820B905
:103740008EA13348FCF780FF23E004EBC40101EBBA
:103750000411294A02EB41008AA1FDF7C3F820B900
:103760008CA12B48FCF770FF13E004EBC40101EBC4
:103770000411214A02EB410089A1FDF7B3F820B9F9
:1037800089A12348FCF760FF03E089A12048FCF7EA
:103790005BFF052C22D2DFE804F003090F151B00A4
:1037A0001B4A85A18748FCF78DFD18E0184A86A1C1
:1037B0008448FCF787FD12E0154A86A18148FCF792
:1037C00081FD0CE0124A86A17E48FCF77BFD06E0F5
:1037D0000F4A87A17B48FCF775FD00E000BF00BFE2
:1037E0004FF6FF720021774800F030FA601CC4B237
:1037F000052CFFF69AAE10BDF91F00204E6F742005
:10380000476F6F6400000000B2BBD2CB0000000025
:103810001A140020CACAD2CB000000005375697484
:1038200061626C6500000000477265617400000011
:1038300052656C61746976656C7920737569746121
:10384000626C6500BDCFCACAD2CB000041766572FA
:1038500061676500D2BBB0E300000000556E666191
:10386000766F7261626C650052656C617469766531
:103870006C7920756E7375697461626C6500000007
:10388000BDCFB2BBD2CB0000556E73756974616257
:103890006C650000B2BBCACAD2CB0000436F6D6634
:1038A0006F727461626C6500CAE6CACA00000000EB
:1038B00052656C61746976656C7920636F6D666FB3
:1038C000727461626C650000BDCFCAE6CACA0000AE
:1038D0005665727920436F6D666F727461626C65B4
:1038E00000000000BADCCAE6CACA000052656C617A
:1038F000746976656C7920756E636F6D666F72742E
:1039000061626C6500000000BDCFB2BBCAE6CACAE6
:1039100000000000556E636F6D666F727461626CBB
:1039200065000000B2BBCAE6CACA000056657279DB
:1039300020756E636F6D666F727461626C650000F6
:10394000BADCB2BBCAE6CACA00000000457874728D
:10395000656D656C7920756E636F6D666F727461ED
:10396000626C6500B7C7B3A3B2BBCAE6CACA00009F
:10397000556E6C696B656C7900000000B2BBD2D7E4
:10398000B7A200005665727920556E6C696B656C44
:1039900079000000BCABB2BBD2D7B7A200000000D8
:1039A000526172656C790000C9D9B7A200000000AD
:1039B000CEB4C6A5C5E40000C1C0C9B9A3BA257379
:1039C00020200000E8130020B9FDC3F4A3BA25733A
:1039D00020200000C6A1BEC6A3BA25732020000087
:1039E000CAE6CACAB6C8A3BA2573202000000000E0
:1039F000B3BFC1B7A3BA2573202000002DE9F05F43
:103A00000746884615461E46DDF82890002408EB38
:103A10000600401E83B27819401E82B241463846E5
:103A2000FFF740F8A24619E04FF0000B10E019F83C
:103A3000140000F034FE012101EB440119F80100EB
:103A400000F02DFE601C84B20BF101001FFA80FB18
:103A5000B345ECDB0AF101001FFA80FAAA45E3DB6B
:103A6000BDE8F09FFEB506460C4632237422194687
:103A70000C200094FFF737F83323742219460C20EA
:103A80000094FFF730F83E23762219460C2000946C
:103A9000FFF729F83F23762219460C200094FFF700
:103AA00022F83F230C22322110460094FFF71BF826
:103AB0003F230D22322110460094FFF714F83F23D4
:103AC0007422322110460094FFF70DF83F2375222F
:103AD000322110460094FFF706F8002010214FF61F
:103AE000FF722346CDE90021029012A242210D204F
:103AF00000F0BBF8002E1BDD642E19DC012515E05B
:103B000005F10E018AB288B23C233521FEF7CAFFC7
:103B1000002704E0204600F0B5FD781C87B2082F8E
:103B2000F8DB0A2001F07CFF681C85B2B542E7DBB8
:103B3000FEBD000057616974696E672E2E2E00006D
:103B40002DE9F04707468946924600264FF04B087C
:103B5000002571E005EB05103A4911F8100039789D
:103B6000884267D105EB0510364901EB40004078EB
:103B7000797888425ED1002659E000244FE0072E74
:103B800023DC05EB05102F4901EB4000801C10F8E9
:103B900014000121B140084038B12B48B0F8FE00B4
:103BA00040F001002849A1F8FE001E20B0EB440FB0
:103BB00000D136E02448B0F8FE004FF6FF7101EA6C
:103BC00040002149A1F8FE0027E005EB05101D4942
:103BD00001EB4000801C012101EB4401405CA6F197
:103BE000080101228A40104038B11748B0F8FE00A1
:103BF00040F001001449A1F8FE00012000EB440050
:103C00001F2800D10DE01048B0F8FE004FF6FF71FC
:103C100001EA40000C49A1F8FE00601CC4B2102C5F
:103C2000ADDB00BF192001F0FBFE701CC6B2102EE8
:103C3000A3DB03E0681C85B245458BDB00BFBDE814
:103C4000F087000024990008E811002070B50446B0
:103C50000D46164605E0324629462046FFF770FF1E
:103C6000641C20780028F6D170BD2DE9FE4F064671
:103C70000F4614469846DDE90D5ADDF8309010E005
:103C8000CDE9015ACDF800902278434639463046B6
:103C9000FFF7DAF8284605EBD07106EB61018EB22A
:103CA000641C20780028EBD1BDE8FE8F2DE9F84395
:103CB00004460D46934800780A2190FBF1F0C6B205
:103CC0009048007890FBF1F201FB1200C7B2C6EBFE
:103CD000C60000EB80008C4901EB001014230E227B
:103CE000294600902046FFF789FEC7EBC70000EB8E
:103CF0008000854901EB001004F10F01009088B2AB
:103D000014230E222946FFF779FE804800780A2105
:103D100090FBF1F0C6B27D48007890FBF1F201FB18
:103D20001200C7B2C6EBC60000EB8000764901EB7B
:103D3000001004F12501009088B214230E222946B8
:103D4000FFF75CFEC7EBC70000EB80006E4901EB9C
:103D5000001004F13401009088B214230E22294689
:103D6000FFF74CFE6A4800780A2190FBF1F0C6B2DA
:103D70006748007890FBF1F201FB1200C7B2C6EB76
:103D8000C60000EB8000604901EB001004F14A011D
:103D9000009088B214230E222946FFF72FFEC7EBAE
:103DA000C70000EB8000584901EB001004F15901F5
:103DB000009088B214230E222946FFF71FFE6A1DC9
:103DC00091B204F1200290B20022FEF7E2FE6A1DD9
:103DD00091B204F1210290B20022FEF7DAFEAA1D90
:103DE00091B204F1200290B20022FEF7D2FEAA1D89
:103DF00091B204F1210290B20022FEF7CAFE05F151
:103E00000D0291B204F1200290B20022FEF7C1FE31
:103E100005F10D0291B204F1210290B20022FEF7E9
:103E2000B8FE05F10E0291B204F1200290B2002218
:103E3000FEF7AFFE05F10E0291B204F1210290B23D
:103E40000022FEF7A6FE6A1D91B204F1460290B26E
:103E50000022FEF79EFE6A1D91B204F1470290B265
:103E60000022FEF796FEAA1D91B204F1460290B21E
:103E70000022FEF78EFEAA1D91B204F1470290B215
:103E80000022FEF786FE05F10D0291B204F1460212
:103E900090B20022FEF77DFE05F10D0291B204F111
:103EA000470290B20022FEF774FE05F10E0291B2B5
:103EB00004F1460290B20022FEF76BFE05F10E02FD
:103EC00091B204F1470290B20022FEF762FE05F1C2
:103ED000170083B281B280220020FEF7E3FD4FF08D
:103EE000000809E0002000F0DAFB002000F0D7FB1A
:103EF00008F1010000F0FF08B8F1800FF2DBBDE827
:103F0000F88300001800002016A700081900002000
:103F10001A0000200FB587B0099812281ED008DCBF
:103F200002280FD0032810D0072811D0082824D148
:103F300011E01B2815D01D2816D0212817D02328C2
:103F40001BD117E00020099018E00120099015E02E
:103F50000520099012E0062009900FE01120099039
:103F60000CE01A20099009E01C20099006E02020AE
:103F7000099003E02220099000E000BF00BF0998EB
:103F80000F2802DC012006900AE00998102805DBC2
:103F900009981F2802DC0220069001E00320069009
:103FA0000698401E1022099902FB1010C0B2F94A6F
:103FB00001460490069801F038FAF64800900898F7
:103FC0000A3080B22B231A46014604900798FFF767
:103FD00015FDF04A0021042001F027FAED48009079
:103FE0000898203080B204900798373080B21923A7
:103FF0001A4603900499FFF701FD002010214FF6A7
:10400000FF72CDE9002102900898801D80B20490D3
:104010000798373080B20023DFA203900499FFF79E
:1040200024FE10204FF6FF710022CDE900210290FE
:104030000898253080B204900798533080B202234C
:1040400003900A9A0499FFF721FA002010214FF6F5
:10405000FF72CDE9002102900898253080B20490CB
:104060000798643080B20023CEA203900499FEF733
:1040700065FF099825287DD2DFE800F013147C7CC9
:10408000293E3F7C7C5469807C95AABFD4F87CF69D
:10409000F5F4F3F2F1F0EF7CEE7CEDECEB7CEA7CF6
:1040A000E90000BF002010214FF6FF72CDE900218A
:1040B00002900898801D80B2049007984F3080B21B
:1040C0000023B9A203900499FEF738FF57E20020BD
:1040D00010214FF6FF72CDE9002102900898801D53
:1040E00080B204900798473080B20023AFA20390BB
:1040F0000499FEF723FF42E200BF002010214FF693
:10410000FF72CDE9002102900898801D80B20490D2
:104110000798373080B20023A6A203900499FEF7D7
:104120000DFF2CE2002010214FF6FF72CDE9002197
:1041300002900898801D80B2049007984F3080B29A
:1041400000239FA203900499FEF7F8FE17E20020D7
:1041500010214FF6FF72CDE9002102900898801DD2
:1041600080B204900798473080B2002395A2039054
:10417000049900E002E2FEF7E1FE00E200201021D7
:104180004FF6FF72CDE9002102900898801D80B2A1
:10419000049007983F3080B200238CA203900499CA
:1041A000FEF7CCFEEBE1002010214FF6FF72CDE9C7
:1041B000002102900898801D80B204900798473033
:1041C00080B2002383A203900499FEF7B7FED6E1E4
:1041D000002010214FF6FF72CDE9002102900898CF
:1041E000801D80B204900798473080B200237BA2E4
:1041F00003900499FEF7A2FEC1E1002010214FF6C2
:10420000FF72CDE9002102900898801D80B20490D1
:104210000798473080B2002372A203900499FEF7FA
:104220008DFEACE1002010214FF6FF72CDE9002198
:1042300002900898801D80B204900798473080B2A1
:1042400000236AA203900499FEF778FE97E180E1CB
:104250006AE154E13EE128E112E1FCE0E6E083E0BE
:104260006DE057E041E02BE015E0FFE70020102172
:104270004FF6FF72CDE9002102900898801D80B2B0
:10428000049007983F3080B200235AA2039004990B
:10429000FEF754FE73E1002010214FF6FF72CDE9C6
:1042A000002102900898801D80B204900798473042
:1042B00080B2002351A203900499FEF73FFE5EE115
:1042C000002010214FF6FF72CDE9002102900898DE
:1042D000801D80B2049007983F3080B2002349A22D
:1042E00003900499FEF72AFE49E1002010214FF6C1
:1042F000FF72CDE9002102900898801D80B20490E1
:104300000798473080B2002340A203900499FEF73B
:1043100015FE34E1002010214FF6FF72CDE9002197
:1043200002900898801D80B204900798473080B2B0
:10433000002338A203900499FEF700FE1FE100203D
:1043400010214FF6FF72CDE9002102900898801DE0
:1043500080B204900798473080B200232FA20390C8
:104360000499FEF7EBFD0AE1002010214FF6FF72E1
:10437000CDE9002102900898801D80B20490079832
:10438000473080B2002327A203900499FEF7D6FDA0
:10439000F5E00000E801002020202020202020203F
:1043A00000000000A1E60000C7E70000B6E0D4C6A8
:1043B00000000000C7E7BCE4B6E0D4C6000000007F
:1043C000D2F50000D5F3D3EA00000000C0D7D5F342
:1043D000D3EA0000D0A1D3EA00000000D6D0D3EA8F
:1043E00000000000B4F3D3EA00000000B1A9D3EA52
:1043F00000000000B4F3B1A9D3EA0000B6B3D3EAD9
:1044000000000000D3EABCD0D1A90000D5F3D1A9A7
:1044100000000000D0A1D1A900000000D6D0D1A991
:1044200000000000B4F3D1A900000000002010211A
:104430004FF6FF72CDE9002102900898801D80B2EE
:1044400004900798473080B2002380A2039004991B
:10445000FEF774FD93E0002010214FF6FF72CDE9C6
:10446000002102900898801D80B204900798473080
:1044700080B2002377A203900499FEF75FFD7EE0EF
:10448000002010214FF6FF72CDE90021029008981C
:10449000801D80B2049007983F3080B200236FA245
:1044A00003900499FEF74AFD69E0002010214FF6C1
:1044B000FF72CDE9002102900898801D80B204901F
:1044C00007984F3080B2002366A203900499FEF74C
:1044D00035FD54E0002010214FF6FF72CDE9002198
:1044E00002900898801D80B2049007984F3080B2E7
:1044F00000235DA203900499FEF720FD3FE0002019
:1045000010214FF6FF72CDE9002102900898801D1E
:1045100080B204900798473080B2002353A20390E2
:104520000499FEF70BFD2AE0002010214FF6FF72E0
:10453000CDE9002102900898801D80B20490079870
:10454000473080B200234BA203900499FEF7F6FC9B
:1045500015E0002010214FF6FF72CDE900210290F6
:104560000898801D80B2049007983F3080B20023E5
:1045700042A203900499FEF7E1FC00E000BF00BFF7
:1045800008983C3080B204900798353080B2039090
:104590000798353080B20290DDE903230899FEF7D1
:1045A00081FA0020059009E0002000F078F8002052
:1045B00000F075F80598401CC0B2059005983F289A
:1045C000F2DB08981C3080B204900798763080B2F5
:1045D000039008981C3080B202900798353080B262
:1045E000019002A90EC9FEF75DFA0020059009E0CE
:1045F000002000F054F8002000F051F80598401C0D
:10460000C0B2059005984128F2DB08983C3080B292
:10461000049008983C3080B203908022014600202C
:10462000049BFEF73FFA0020059009E0002000F00F
:1046300036F8002000F033F80598401CC0B2059011
:1046400005988028F2DB0BB000BD0000B1A9D1A90C
:1046500000000000B8A1B3BE00000000C9B3B3BEA3
:10466000B1A90000CEED0000F6B20000B4F3B7E748
:1046700000000000ECABB7E700000000C1FABEED9F
:10468000B7E7000010B5044600F0DEF8201200F095
:10469000E5F8E0B200F0E2F800F0DBF810BD10B58C
:1046A000044600F0D1F8204600F0D8F800F0D1F828
:1046B00010BD000010B5044600F0C6F80121064800
:1046C000FDF760FE204600F0C9F801210248FDF721
:1046D0005BFE00F0BEF810BD000C014008B50121E2
:1046E000052000F09DF901210B48FDF703FE4FF472
:1046F0000040ADF8000010208DF8030003208DF875
:10470000020069460548FDF769FD4FF40041034882
:10471000FDF73AFE08BD000000023000000801402D
:1047200000BFFEE710B5044622464FF48061024800
:10473000FDF72CFE10BD0000000C014010B500205C
:10474000FFF7F0FF10BD10B50120FFF7EBFF10BD24
:1047500000B587B00121042000F062F90121082092
:1047600000F05EF90121080300F05AF910208DF8DD
:104770001B001220ADF8180003208DF81A0006A9BE
:104780002948FDF72BFD10208DF81B0040F2034057
:10479000ADF8180003208DF81A0006A92348FDF78C
:1047A0001DFD18208DF81B00A020ADF81800032077
:1047B0008DF81A0006A91C48FDF710FD48208DF859
:1047C0001B004020ADF8180003208DF81A0006A940
:1047D0001548FDF703FD0020ADF81000ADF80C0002
:1047E000ADF80A000720ADF814000020ADF808006D
:1047F000ADF80400ADF812004FF48270ADF8060079
:104800004FF40070ADF80E0001A9094800F09CF9C2
:104810000121074800F07EF9012000F00BF801208B
:10482000FFF780FF07B000BD00080140000C014009
:104830000030014010B50446224610210148FDF722
:10484000A5FD10BD0008014010B50020FFF7F2FFE4
:1048500010BD10B50120FFF7EDFF10BD10B50446E7
:1048600000BF02210A4800F061F90128F9D1214670
:10487000074800F067F900BF0121054800F056F92C
:104880000128F9D1024800F05AF9C0B210BD000069
:10489000003001402DE9F0478AB005460E46202140
:1048A00002A8FBF7F8FF00BF00BF2946144800F03C
:1048B00041F8824613A15046FBF7B4FE804608F14A
:1048C000080412A12046FBF7ADFE8146A9EB0400C7
:1048D000C7B20020E05506EBC60101EB06110C4AF9
:1048E00002EB41002146FBF7AFFE23462A4609A111
:1048F0000F48009700F058FD0AB0BDE8F0870000AF
:10490000D21A00206272696566000000222C220023
:10491000F91F00202573206973202573203A202C6D
:10492000206C656E7468203A2025640D0A00000032
:1049300000380140F0B502460C4617E01146234608
:1049400000200D781E78B5420ED1084600BF0D78C4
:104950003DB11D782DB111F8016B13F8017BBE42FA
:10496000F5D01D7805B9F0BD521C00BF002AE5D175
:104970000020F8E77047000070B5002100230F22E7
:10498000C47804B3154C246804F4E064C4F5E0640E
:10499000210AC1F10403CA40447804FA03F184787F
:1049A0001440214309010E4C0678A155047804F007
:1049B0001F050124AC4005786D11AD0005F1E0251F
:1049C000C5F8004109E0047804F01F050124AC405B
:1049D000044D0678761145F8264070BD0CED00E0D8
:1049E00000E400E080E100E002490143024A116076
:1049F000704700000000FA050CED00E07047000071
:104A000029B1064AD2690243044BDA6104E0034A41
:104A1000D2698243014BDA61704700000010024006
:104A200029B1064A92690243044B9A6104E0034AA1
:104A300092698243014B9A61704700000010024066
:104A400030B500210022002400232D4D6D6805F0B3
:104A50000C0121B1042905D0082923D105E0294DF5
:104A6000056022E0274D05601FE0254D6D6805F4C7
:104A70007012234D6D6805F48034022505EB9242D7
:104A80001CB9214D554305600BE01D4D6D6805F4C3
:104A900000351DB11C4D5543056002E0194D5543CD
:104AA000056002E0174D056000BF00BF144D6D6842
:104AB00005F0F0010909154D6B5C0568DD404560A6
:104AC0000F4D6D6805F4E061090A104D6B5C456897
:104AD000DD4085600A4D6D6805F46051C90A0B4DD3
:104AE0006B5C4568DD40C560054D6D6805F440416F
:104AF000890B074D6B5CC568B5FBF3F5056130BDEF
:104B00000010024000127A0000093D002B00002036
:104B10003B00002021B1028842F04002028004E004
:104B200002884FF6BF731A40028070470246002089
:104B300013890B400BB1012000E0002070470146B3
:104B4000888970478181704710B50022028802F47D
:104B500041520B884C8823438C882343CC882343C1
:104B60000C8923434C8923438C892343CC892343D9
:104B70001A430280838B4FF2FF74234083830B8A96
:104B8000038210BD704710B500F002F810BD0000A0
:104B90000CB50020019000903348006840F480304C
:104BA0003149086000BF3048006800F400300090D0
:104BB0000198401C0190009818B90198B0F5A06FB9
:104BC000F1D12948006800F4003010B101200090B4
:104BD00001E0002000900098012843D1234800689C
:104BE00040F01000214908600846006820F00300EA
:104BF00008600846006840F0020008601A484068F3
:104C0000194948600846406848600846406840F4D2
:104C1000806048600846406820F47C104860084680
:104C2000406840F4E81048600846006840F0807032
:104C3000086000BF0C48006800F000700028F9D040
:104C40000948406820F0030007494860084640686A
:104C500040F00200486000BF0348406800F00C00CC
:104C60000828F9D10CBD00000010024000200240CD
:104C7000042808D14FF0E021096941F004014FF008
:104C8000E022116107E04FF0E021096921F0040101
:104C90004FF0E022116170477047000010B51348D3
:104CA000006840F00100114908600846406810495A
:104CB00008400E494860084600680E4908400B4904
:104CC00008600846006820F48020086008464068B4
:104CD00020F4FE0048604FF41F008860FFF753FF88
:104CE0004FF000600449086010BD00000010024051
:104CF0000000FFF8FFFFF6FE08ED00E010B501210F
:104D0000880700F0D7F8012836D11C480078401CED
:104D10001A4908701A480088401C19490880194827
:104D20000088401C17490880144800783C281BDB89
:104D300000201249087014480078401C124908707D
:104D4000084600783C280FD1002008700F480078F2
:104D5000401C0E49087008460078182804D100202D
:104D6000087001200A49087016210D20FEF79EFFE9
:104D70000121880700F08FF810BD00001A00002004
:104D80001E00002020000020190000201800002034
:104D90002200002010B50121324800F08BF80128D4
:104DA0005ED131480078401C2F49087008460078D1
:104DB000272838DB002008702C480078401C2B493D
:104DC00008702B480088401C294908802948008821
:104DD000401C28490880254800783C281BDB00201F
:104DE0002249087024480078401C2349087008466E
:104DF00000783C280FD10020087020480078401C23
:104E00001E49087008460078182804D10020087050
:104E100001201B4908701B480078012803D1162186
:104E20000D20FEF743FF18480078012814D14FF6F3
:104E3000FF710020FDF7DEFF002407E01349601C2E
:104E400031F8100021F81400601CC4B27F2CF5DB8F
:104E500000200E49A1F8FE000121024800F01BF8D5
:104E600010BD0000000400402A0000201A000020AD
:104E70001E00002020000020190000201800002043
:104E8000220000202300002024000020E811002040
:104E9000CA4302827047CA430282704721B1028826
:104EA00042F00102028004E002884FF6FE731A40CD
:104EB0000280704730B50246002000230024158A86
:104EC00005EA0103958905EA010413B10CB101203B
:104ED00000E0002030BD1AB183890B43838102E0DA
:104EE00083898B438381704701894FF6F8721140A3
:104EF00001817047002202881D4B98420ED01D4B45
:104F000098420BD0B0F1804F08D01B4B984205D08F
:104F10001A4B984202D01A4B984204D14FF68F7325
:104F20001A404B881A43174B984207D0164B9842A9
:104F300004D04FF6FF431A40CB881A4302808B8877
:104F400083850B8803850A4B98420BD0094B984206
:104F500008D00E4B984205D00D4B984202D00D4B15
:104F6000984201D10B7A03860123838270470000A7
:104F7000002C0140003401400004004000080040C3
:104F8000000C0040001000400014004000400140B0
:104F900000440140004801401FB501210220FFF7F5
:104FA0002FFD1B48FFF7A0FF0020ADF80A00ADF869
:104FB000060040F6C310ADF8080040F2CF20ADF86F
:104FC000040000208DF80C0001A91148FFF792FFA2
:104FD00001210F48FFF75CFF012211460C48FFF743
:104FE0007AFF4FF4A060FFF7FFFC1D208DF8000052
:104FF00001208DF8030002208DF801008DF80200D9
:105000006846FFF7B9FC01210148FFF747FF1FBDC4
:105010000004004010B540F22551064800F056F853
:1050200038B1044800F00EF9C4B22146014800F03E
:105030000EF910BD0038014010B540F225510F485F
:1050400000F044F8C0B10E48008840F21451884284
:1050500002D300200A4908800848001D0088C1B218
:10506000074802880088401C054B18800548815479
:105070002021024800F008F810BD00000044004064
:10508000400000202E14002001F40072B2F5007FD1
:1050900000D100BFCA430280704721B1828942F427
:1050A0000052828104E082894DF6FF731A408281AA
:1050B000704702460020B1F5007F00D100BF138881
:1050C0000B400BB1012000E00020704770B5024694
:1050D000002400230025002040F66A16B14200D1CA
:1050E00000BFC1F3421501F01F03012606FA03F3C6
:1050F000012D02D19689334006E0022D02D1168A95
:10510000334001E0968A33400C12012606FA04F47B
:105110001688344013B10CB1012000E0002070BDAE
:10512000F0B50346002400260025002040F66A174B
:10513000B94200D100BF1846C1F3421401F01F0666
:10514000012707FA06F5012C01D10C3004E0022CEE
:1051500001D1103000E014301AB107682F43076006
:1051600002E00768AF430760F0BD00002DE9F0479B
:1051700086B005460E460024A24600BFA146002781
:10518000B08900B100BF2F462C8A4CF6FF70044056
:10519000F08804432C82AC894EF6F3100440B088AA
:1051A00031890843718908430443AC81AC8A4FF6C6
:1051B000FF400440B0890443AC8201A8FFF740FCE3
:1051C0001F48874202D1DDF810A001E0DDF80CA0F5
:1051D000A88900F4004040B10AEBCA0000EB0A10B5
:1051E00031684900B0FBF1F807E00AEBCA0000EBB8
:1051F0000A1031688900B0FBF1F86420B8FBF0F0C8
:1052000004012009642101FB1089A88900F40040F1
:1052100040B1322000EBC900B0FBF1F000F0070014
:10522000044308E0322000EB09106421B0FBF1F0E8
:1052300000F00F0004432C8106B0BDE8F0870000A9
:105240000038014001468888C0F308007047C1F368
:1052500008028280704700BFFEE7000010B586B0EC
:105260000446012144F20400FFF7DAFB4FF400701A
:10527000ADF8140003208DF8160018208DF81700E3
:1052800005A91C48FCF7AAFF4FF48060ADF8140094
:1052900004208DF8170005A91648FCF79FFF25206C
:1052A0008DF8000003208DF801008DF80200012028
:1052B0008DF803006846FFF75FFB01940020ADF80E
:1052C0000800ADF80A00ADF80C00ADF810000C2095
:1052D000ADF80E0001A90848FFF748FF012240F28F
:1052E00025510548FFF71CFF01210348FFF7D5FEB4
:1052F00006B010BD000801400038014010B586B06E
:10530000044601210420FFF78BFB01214804FFF72D
:1053100077FB18208DF817000420ADF81400032047
:105320008DF8160005A91E48FCF758FF04208DF8DB
:1053300017000820ADF8140003208DF8160005A909
:105340001748FCF74BFF01940020ADF810000C202B
:10535000ADF80E000020ADF80C00ADF80A00ADF875
:10536000080001A90F48FFF701FF01210D48FFF7D1
:1053700094FE012240F225510A48FFF7D1FE262073
:105380008DF8000001208DF8030000208DF8010049
:105390008DF802006846FFF7EFFA06B010BD000076
:1053A00000080140004400400FB430B5ADF21C5D70
:1053B000054602AC0DF5A660019040F2145102A81A
:1053C000019BDDF82C25FAF763FF002001900BE02C
:1053D00014F8011B2846FFF73AFF00BF402128467A
:1053E000FFF767FE0028F9D020780028F0D10DF2F1
:1053F0001C5D30BC5DF814FB2DE9F04107460C46FE
:10540000154600260DE014F8011B3846FFF71FFF74
:1054100000BF40213846FFF74CFE0028F9D0701C31
:1054200086B2AE42EFDBBDE8F0812DE9F0410546E2
:105430000E469046002404EB063000EB0544FFF7CF
:105440007DF90320FFF70AFAC4F30740FFF706FAD5
:10545000C4F30720FFF702FAE0B2FFF7FFF90027D5
:1054600005E0FF20FFF7FAF908F807007F1C40F677
:10547000FF708742F5D3FFF766F9BDE8F081490078
:1054800050EAC12018BF04204A0D18BF40F00100A7
:1054900040F2FF72B2EB515F08BF40F002000128FA
:1054A00008BF052070472DE9F0414F1E00EBC701F2
:1054B0000446D1E9000115461E4637F006020DD01C
:1054C0002A46334601F0CAFF7F1E04EBC703D3E927
:1054D000002301F02DFD37F00602F1D1022F25D077
:1054E000042F13D0062F18BFBDE8F0812A4633469B
:1054F00001F0B4FFD4E90A2301F01AFD2A4633462D
:1055000001F0ACFFD4E9082301F012FD2A4633462E
:1055100001F0A4FFD4E9062301F00AFD2A46334630
:1055200001F09CFFD4E9042301F002FD2A46334632
:1055300001F094FFD4E9022301F0FAFC2A46334635
:1055400001F08CFFD4E90023BDE8F04101F0F0BC8C
:10555000002213461046014901F0A6BD0000F03FAD
:1055600001F0E6BC002213461046114601F09CBD36
:1055700040F2013200204FF0E04102F0B5BA0000E5
:10558000024A0020110702F0AFBA000001FDFFFF40
:1055900030380A2801D201207047002070470000EF
:1055A00070B5044622E02568A08900F4807020B917
:1055B000A06810B1A068FFF7F3FFA08900F4807025
:1055C00028B9206918B10B49206909688847A08962
:1055D00000F4007028B9206A18B10649206A0968E9
:1055E000884720460349096888472C46002CDAD1B1
:1055F00070BD0000500000200246906801E0491E86
:10560000006808B10029FADC704701468A6800206A
:1056100001E0401C1268002AFBD1704770B50546B6
:105620000E46AC6800E024682CB13146206A00F0D8
:10563000AFF90028F7D1204670BD000010B5282032
:1056400005490968884704461CB128212046FBF714
:1056500022F9204610BD00004C00002010B5044681
:1056600000221146204600F001F810BD2DE9F04758
:1056700080460D4616460024FFF7E0FF074600204F
:10568000124908600FB9BDE8F087404601F0F4FB0D
:1056900081464946384600F0A5FE044624B93846FE
:1056A000FFF77EFF0020EEE766B1204601F0E4FB45
:1056B0000446207830B13846FFF772FF0348046093
:1056C0000020E0E705B12C603846DCE74800002008
:1056D0002DE9FC5F81460D4600208D4908708D49FB
:1056E00008704846FFF7BAFF8046B8F1000F02D1B4
:1056F0000120BDE8FC9F88A14046FFF78FFF82464E
:105700005046FFF782FF019000215046FFF774FFDB
:10571000B0F1000B7DD082A15846FFF77FFF071E36
:105720005ED082A13846FFF779FF041E08D02069B9
:10573000FAF7AEFF0090024628462169FBF712F8FF
:105740007BA13846FFF76AFF041E09D02069FAF7EB
:105750009FFF0090024605F120002169FBF702F847
:1057600075A13846FFF75AFF041E09D02069FAF7E1
:105770008FFF0090024605F140002169FAF7F2FF21
:105780006FA13846FFF74AFF041E09D02069FAF7D7
:105790007FFF0090024605F160002169FAF7E2FF01
:1057A00069A13846FFF73AFF041E09D02069FAF7CD
:1057B0006FFF0090024605F1A0002169FAF7D2FFC1
:1057C00064A13846FFF72AFF041E09D02069FAF7C2
:1057D0005FFF0090024605F1C0002169FAF7C2FFA1
:1057E00060A15846FFF71AFF071E7BD05EA138461E
:1057F000FFF714FF041E09D02069FAF749FF009053
:10580000024605F1E0002169FAF7ACFF58A13846DD
:1058100000E077E0FFF702FF041E2ED02069FAF7C0
:1058200037FF0090024605F580702169FAF79AFF6C
:1058300095F8010130281BDB95F80101392817DCA8
:10584000002612E0C6F10100C1B20A2000F090FA71
:10585000014605F58070805D30382D4A127800FBD6
:1058600001202B490870701CC6B2022EEADB04E04E
:1058700095F800013038264908703FA13846FFF7F7
:10588000CDFE041E2ED02069FAF702FF00900246DA
:1058900005F590702169FAF765FF95F82101302828
:1058A0001BDB95F82101392817DC002612E0C6F130
:1058B0000100C1B20A2000F05BFA014605F59070C4
:1058C000805D3038134A127800FB012011490870BE
:1058D000701CC6B2022EEADB04E095F820013038D5
:1058E0000C49087027A15846FFF798FE071E09D0FB
:1058F0003869FAF7CDFE0090024605F5A0703969C7
:10590000FAF730FF00BF4046FFF74AFE0020F0E6FE
:105910001B0000201C000020726573756C747300FE
:105920006C6F636174696F6E000000006964000051
:105930006E616D6500000000636F756E74727900B2
:10594000706174680000000074696D657A6F6E653F
:105950000000000074696D657A6F6E655F6F666642
:10596000736574006E6F77007465787400000000D2
:10597000636F64650000000074656D70657261742A
:10598000757265006C6173745F7570646174650035
:1059900070B504460D462CB9AC4201D0012070BD53
:1059A0000020FCE70DB90120F9E705E0207808B9EF
:1059B0000020F4E7641C6D1C2078FAF75BFC0646B7
:1059C0002878FAF757FC8642F0D02078FAF752FC94
:1059D00006462878FAF74EFC301AE0E710B56FF06B
:1059E0000400FFF745F90A4800680A49B0FBF1F0E6
:1059F000094908700846007800EB4001C1EBC0106F
:105A00004FF6FF7101EAC0000449088010BD000094
:105A10000000002000127A0026000020280000204C
:105A20000146114A12884A434FF0E0235A6100228E
:105A30009A611A46126942F001021A6100BF4FF0E2
:105A4000E022106900F001021AB100F48032002A4D
:105A5000F5D04FF0E022126922F001024FF0E0236E
:105A60001A6100229A617047280000201FB5FFF7D5
:105A7000B5FFFEF733FEFDF7BFF84FF6FF7080234A
:105A80001A46002100900846FDF791F84FF4A060F7
:105A9000FEF7AAFF4FF4E130FFF7E0FB4FF4E130EF
:105AA000FFF72CFCFCF7F0F9FCF708FF4B494C48DA
:105AB000FFF70EFEFCF770FCFCF7E6F9FCF75CFD67
:105AC0004FF6FF7080231A46002100900846FDF72C
:105AD0006EF801204349087043480078434909782B
